:020000040800F2
:1000000078060020790100088101000883010008BA
:1000100000000000000000000000000000000000E0
:100020000000000000000000000000008501000842
:10003000000000000000000087010008890100089E
:100040008B0100088B0100088B0100088B01000860
:10005000670300088B0100088B0100088B01000872
:100060008B0100088B0100088B0100088B01000840
:100070008B0100088B0100088B0100088B01000830
:100080008B0100088B010008000000008B010008B4
:100090008B0100088B0100088B0100088B01000810
:1000A0008B0100088B0100088B01000899030008F0
:1000B0008B010008000000008B0100080000000018
:1000C00000F002F800F048F80CA030C808382418F6
:1000D0002D18A246671EAB4654465D46AC4201D180
:1000E00000F03AF87E460F3E0FCCB646012633426A
:1000F00000D0FB1AA246AB46334318477C120000DF
:100100009C120000103A02D378C878C1FAD852077E
:1001100001D330C830C101D504680C6070470000BD
:100120000023002400250026103A01D378C1FBD813
:10013000520700D330C100D50B60704710B5642959
:1001400002D101F017F810BD002010BD1FB5C04648
:10015000C0461FBD10B510BD01F0CFF81146FFF726
:10016000F5FF00F086F801F0E7F803B4FFF7F2FFBF
:1001700003BC01F0EBF80000074880470748004740
:10018000FEE7FEE7FEE7FEE7FEE7FEE70448054977
:10019000054A064B70470000E7030008C10000084D
:1001A00078000020780600207802002078020020E5
:1001B00010B501220521432000F0C1FA052143209A
:1001C00000F0E2FC0521432000F01CFD122000F0AD
:1001D00018FE0521432000F0D7FC00220521432012
:1001E00000F0ADFA032000F0FCFD10BD10B50521B4
:1001F000432000F04DFA00280ED100BF0521432016
:1002000000F046FA0028F9D000BF0521432000F095
:100210003FFA0028F9D106E000F088FE92A000F035
:10022000DBFE002010BD00BFFCE770B500240025F8
:100230001BE000BF0521432000F02AFA0028F9D076
:10024000042000F0CEFD0521432000F021FA002813
:1002500002D06000441C00E0640000BF0521432080
:1002600000F016FA0028F9D16D1C082DE1DB2046BC
:1002700070BD8AB000F01AFD00F06EFD00F086FD42
:10028000412000F02DFD432000F02AFD00F0D6FDB6
:1002900000F054FE00F04AFE0021084600F078FE0F
:1002A00000F0A6FE5EE0FFF783FFFFF79FFFFFF77A
:1002B000BCFF6F490860FFF7B8FF6E490860FFF7A1
:1002C000B4FF6D490860FFF7B0FF6C490860FFF7A5
:1002D000ACFF6B49086066480068664909684018C9
:1002E0006549096840186549096840186449096802
:1002F00088422BD100F01AFE0021084600F048FE8B
:100300005C4803685A485FA10268684600F0E8FE4E
:10031000684600F061FE0121002000F039FE5748D8
:10032000036855485AA10268684600F0D9FE68463D
:1003300000F052FE4E4803684F4858A102686846D4
:1003400000F0CEFE684600F0BAFE08E000F0EEFDD8
:100350000021052000F01CFE52A000F03DFE534895
:1003600000F04FFD9FE752488068082108400028B0
:1003700011D04F488068090408434D4988600846F9
:1003800040688008800048600846406801210843B2
:100390004749486072B6704708B54648C069402171
:1003A000084000900098002804D04248006A0843A2
:1003B000404908623F48C0692021084000900098E9
:1003C00000280FD03B48406AC0B23B49086039481A
:1003D0008069082108433749886137490968C8B2EC
:1003E00000F05EFE08BD3248006801210843304934
:1003F000086008464068314908402D494860084671
:1004000000682F4908402A49086008460068012111
:100410008904884326490860084640683F2109044A
:100420008843234948600846406800090001486045
:100430000846006BFF21543188431D490863084674
:10044000006BFF2194318843194908630846006B0B
:1004500080210843164908630846406B4008400065
:1004600048630020886070476572726F72000000F8
:1004700004000020080000200C00002010000020D4
:100480001400002048756D3A2025642E2564000074
:1004900054656D703A2025642E25640025645F251F
:1004A000640A00004661696C21210000DC0500003F
:1004B0000010024000380140000000200CB8FFF896
:1004C000FFFFF6FE10B50246413A130000F045FF6B
:1004D000060418293A4B5B6B0922D206D2684C00FD
:1004E0000323A3409A430923DB06DA601A46D26845
:1004F0004C000123A3401A430923DB06DA6052E0D3
:10050000FC4AD2684C000323A3409A43F94BDA60BB
:100510001A46D2684C000123A3401A43F54BDA6017
:1005200041E0F54AD2684C000323A3409A43F24BC2
:10053000DA601A46D2684C000123A3401A43EE4BFE
:10054000DA6030E0ED4AD2684C000323A3409A43BE
:10055000EA4BDA601A46D2684C000123A3401A43E2
:10056000E64BDA601FE0E64AD3684C000322A24063
:100570009343E34AD360D2684C000123A3401A435B
:10058000DF4BDA600FE0DF4AD3684C000322A24061
:100590009343DC4AD360D2684C000123A3401A4342
:1005A000D84BDA6000BF00BF10BD10B50246413A1B
:1005B000130000F0D2FE060418293A4B5B6B0922A7
:1005C000D206D2684C000323A3409A430923DB06DA
:1005D000DA601A46D2684C000223A3401A4309236A
:1005E000DB06DA6052E0C34AD2684C000323A34022
:1005F0009A43C04BDA601A46D2684C000223A340EB
:100600001A43BC4BDA6041E0BB4AD2684C0003237A
:10061000A3409A43B84BDA601A46D2684C000223D2
:10062000A3401A43B44BDA6030E0B44AD2684C00BD
:100630000323A3409A43B14BDA601A46D2684C00B8
:100640000223A3401A43AD4BDA601FE0AC4AD368E3
:100650004C000322A2409343A94AD360D2684C00C5
:100660000223A3401A43A64BDA600FE0A54AD368E1
:100670004C000322A2409343A24AD360D2684C00AC
:100680000223A3401A439F4BDA6000BF00BF10BD96
:1006900010B5024600201446413C230000F05DFEE8
:1006A0000604111D2935414D0923DB061B69012470
:1006B0008C402340002B01D0012300E0002318468A
:1006C0003BE08C4B1B6901248C402340002B01D064
:1006D000012300E0002318462FE0874B1B6901240B
:1006E0008C402340002B01D0012300E0002318465A
:1006F00023E0824B1B6901248C402340002B01D056
:10070000012300E00023184617E07D4B1B690124FC
:100710008C402340002B01D0012300E00023184629
:100720000BE0784B1B6901248C402340002B01D047
:10073000012300E00023184600BF00BF10BD30B504
:100740000446413C230000F008FE06045DACF1F0D5
:10075000EF5C002A06D0012A18D0022A29D0032AE9
:100760004ED139E00923DB061B684D000324AC4061
:10077000A3430924E406236023461B684D0000249C
:10078000AC4023430924E406236039E00923DB0657
:100790001C684D000323AB409C430923DB061C600F
:1007A0001B684D000124AC4023430924E406236068
:1007B00026E00923DB061C684D000323AB409C4365
:1007C0000923DB061C601B684D000224AC40234358
:1007D0000924E406236013E00923DB061B684D00AF
:1007E0000324AC40A3430924E406236023461B688A
:1007F0004D000324AC4023430924E406236000BFDA
:1008000000BF8DE1002A06D0012A15D0022A24D08B
:10081000032A44D132E0374B1B684D000324AC401F
:10082000A343344C236023461B684D000024AC4096
:100830002343304C236032E02E4B1B684D000324D1
:10084000AC40A3432B4C236023461B684D0001247E
:10085000AC402343274C236021E0264B1B684D000E
:100860000324AC40A343234C236023461B684D0064
:100870000224AC4023431F4C236010E01D4B1B6837
:100880004D000324AC40A3431A4C236023461B684D
:100890004D000324AC402343164C236000BF00BF2F
:1008A0003EE1002A06D0012A14D0022A2CD0032AC5
:1008B0004ED13CE0104B1C684D000323AB409C43E1
:1008C0000D4B1C601B684D000024AC4023430A4CB8
:1008D00023603DE0084B1C684D000323AB409C4364
:1008E000054B1C601B684D000124AC402343024CA7
:1008F00023602DE00004004800080048000C004878
:100900000010004800140048E34B1C684D0003230E
:10091000AB409C43E04B1C601B684D000224AC4084
:100920002343DD4C236013E0ACE05FE012E0DA4BE0
:100930001B684D000324AC40A343D74C23602346DF
:100940001B684D000324AC402343D34C236000BFFD
:1009500000BFE5E0002A06D0012A14D0022A22D0E6
:10096000032A41D130E0CD4B1C684D000323AB403E
:100970009C43CA4B1C601B684D000024AC402343C1
:10098000C64C236030E0C54B1C684D000323AB40D0
:100990009C43C24B1C601B684D000124AC402343A8
:1009A000BE4C236020E0BD4B1B684D000324AC40CF
:1009B000A343BA4C236023461B684D000224AC407D
:1009C0002343B64C23600FE0B44B1C684D00032357
:1009D000AB409C43B14B1C601B684D000324AC40F2
:1009E0002343AE4C236000BF00BF99E0002A06D02D
:1009F000012A14D0022A23D0032A41D130E0A84B87
:100A00001C684D000323AB409C43A54B1C601B6836
:100A10004D000024AC402343A14C236030E0A04BA8
:100A20001B684D000324AC40A3439D4C2360234628
:100A30001B684D000124AC402343994C23601FE008
:100A4000974B1C684D000323AB409C43944B1C60A8
:100A50001B684D000224AC402343914C23600FE0FF
:100A60008F4B1C684D000323AB409C438C4B1C6098
:100A70001B684D000324AC402343894C236000BF16
:100A800000BF4DE0002A06D0012A14D0022A23D04C
:100A9000032A43D131E0834B1C684D000323AB4054
:100AA0009C43804B1C601B684D000024AC402343DA
:100AB0007C4C236032E07B4B1B684D000324AC4030
:100AC000A343784C236023461B684D000124AC40AF
:100AD0002343744C236021E0724B1B684D000324B8
:100AE000AC40A3436F4C236023461B684D00022497
:100AF000AC4023436B4C236010E06A4B1B684D00F5
:100B00000324AC40A343674C236023461B684D007D
:100B10000324AC402343634C236000BF00BF00BFED
:100B200000BF30BD00B50246413A130000F015FC8D
:100B300006040C12181E242A0922D20652690A43FE
:100B40000923DB065A611DE0574A52690A43564B96
:100B50005A6117E0504A52690A434F4B5A6111E0FB
:100B60004E4A52690A434D4B5A610BE04C4A526956
:100B70000A434B4B5A6105E04A4A52690A43494BC2
:100B80005A6100BF00BF00BD00B50246413A1300E4
:100B900000F0E3FB06040E161E262E360922D206AE
:100BA000926901238B401A430923DB069A6127E0EF
:100BB0003D4A926901238B401A433B4B9A611FE0E7
:100BC000354A926901238B401A43334B9A6117E0EF
:100BD000324A926901238B401A43304B9A610FE0ED
:100BE0002F4A926901238B401A432D4B9A6107E0EB
:100BF0002C4A926901238B401A432A4B9A6100BF09
:100C000000BF00BD10B50246413A130000F0A5FB3D
:100C10000604101A242E38420922D20692690B4685
:100C2000103301249C4022430923DB069A6131E002
:100C30001D4A92690B46103301249C4022431A4BF3
:100C40009A6127E0144A92690B46103301249C40B4
:100C50002243114B9A611DE0104A92690B461033F2
:100C600001249C4022430D4B9A6113E00C4A936986
:100C70000A461032012494402343094A936109E053
:100C8000084A92690B46103301249C402243054BCD
:100C90009A6100BF00BF10BD00080048000C00486A
:100CA0000010004800140048000400483448406820
:100CB00033494860334800681021084331490860CF
:100CC00062B6314880680121C90208432E49886014
:100CD000084600680D21090408432B490860704745
:100CE00000B5014641390B0000F037FB06040C1437
:100CF0001C242C3424494969012252041143224AFC
:100D0000516127E0204949690122920411431E4A9A
:100D100051611FE01C4949690122D20411431A4A5A
:100D2000516117E018494969012212051143164A19
:100D300051610FE014494969012252051143124AD9
:100D4000516107E0104949690122920511430E4A99
:100D5000516100BF00BF00BD0B48006B80088000E0
:100D6000094908630846006B0121084306490863E6
:100D70000846806901218903084303498861704757
:100D800000E400E000E100E00010024000202949FA
:100D9000086108460069042108432649086108469D
:100DA00000690221C943084322490861704721496B
:100DB000486100211F4A91611146096912171143C8
:100DC0001C4A11611146096901221143194A116136
:100DD0007047184909690122120411400846000CA5
:100DE000704700B5034607E00720FFF7E0FF00BFAC
:100DF000FFF7EFFF0028FBD018465B1E0028F3D159
:100E000000BD00B5034607E00B48FFF7D0FF00BF69
:100E1000FFF7DFFF0028FBD018465B1E0028F3D148
:100E200000BD10B504467D21C90061430846FFF7A7
:100E3000E8FF10BD00E000E03F1F000010B54320B8
:100E4000FFF74EFF01220A214320FFF778FC012221
:100E50000B214320FFF773FC012209214320FFF7F8
:100E60006EFC012208214320FFF769FC01220721C3
:100E70004320FFF764FC012206214320FFF75FFCBB
:100E800010BD10B50B214320FFF77EFE0320FFF7B6
:100E9000A8FF0B214320FFF7B5FE3220FFF7A1FF8B
:100EA00010BD70B504460025E507ED0F002D04D0F8
:100EB00009214320FFF768FE03E009214320FFF7E3
:100EC000A1FEA007C50F002D04D008214320FFF785
:100ED0005BFE03E008214320FFF794FE6007C50F87
:100EE000002D04D007214320FFF74EFE03E0072129
:100EF0004320FFF787FE2007C50F002D04D00621F1
:100F00004320FFF741FE03E006214320FFF77AFE6E
:100F100070BD10B504462011FFF7C3FFFFF7B1FF06
:100F20002046FFF7BEFFFFF7ACFF10BD10B5012054
:100F3000FFF7EFFF0A20FFF754FF10BD10B50020A8
:100F4000FFF7AFFF1420FFF75CFF0A214320FFF7F4
:100F500059FE0320FFF7A5FFFFF793FF0A20FFF7D5
:100F600050FFFFF78EFF0520FFF73BFF0220FFF742
:100F700098FFFFF786FF2820FFF7CBFF0C20FFF735
:100F8000C8FF0620FFF7C5FF0120FFF7C2FF10BD15
:100F900070B504460E46002E03D120468030C5B2FF
:100FA00002E02046C030C5B20120FFF72AFF2846E4
:100FB000FFF7AFFF3220FFF714FF70BD10B50446F6
:100FC0000A214320FFF7E0FD2046FFF7A2FF0A2198
:100FD0004320FFF717FE10BD10B5044603E020784C
:100FE000FFF7ECFF641C20780028F8D110BD00004A
:100FF00010B5022209214120FFF7A1FB0920C006FC
:10100000406AF02188430921C90648620846406ABF
:10101000102108430921C906486202220A21412001
:10102000FFF78DFB0920C006406A0F2109028843A3
:101030000921C90648620846406AFF210131084378
:101040000921C90648622548006840084000234934
:1010500008600846006808600846406803210903E4
:1010600088431E494860084600680121C903884337
:101070001A490860C5208000C86008460068012140
:1010800008431649086008460068082108431349C8
:10109000086008460068042108431049086010BD34
:1010A00010B5014600200D4BDB69802423401A4611
:1010B000002A02D0094B996200E0FF2010BD30B534
:1010C0000446002505E02078FFF7EAFF002800D15C
:1010D000641C20780028F6D1284630BD0038014035
:1010E0000FB41CB5074B06AA7B44694600900598CF
:1010F00000F0D7F80020694600F0E6F81CBC08BCF8
:1011000004B01847DD010000F8B50E460446002083
:1011100020622046E1688847002829D0252802D08F
:101120006268A16820E0E168204600278847050042
:101130001ED028464138192802D80127FF02203541
:101140003246204627602946FEF7F8FF002808D0DF
:10115000012804D0F61DF608F6000836D9E7361D3A
:10116000D7E762682846A1689047206A401CCFE70D
:10117000206AF8BDF7B5002575291068009914A6F6
:1011800011D0C046C046002802DA404211A608E04D
:10119000009909688A0701D50FA602E0490704D51E
:1011A0000EA6012501E0C046C046009F002424375A
:1011B00004E000F08EF830313955641C0028F8D175
:1011C0002B4632462146009800F00DF8FEBD000087
:1011D000000000002D0000002B0000002000000097
:1011E000704770477047FFB504460D4681B0243004
:1011F00000902168880604D51022E069914321609F
:1012000000E00120A84201DD471B00E00027049810
:10121000A1697A191018081AA0612078C00602D4B2
:101220002046C046C046002608E003986268A168D0
:10123000805D9047206A401C761C2062049886429C
:10124000F3DB2078C0060AD52046C046C04606E03B
:101250006268A16830209047206A401C20623846AE
:101260007F1E0028F4DC07E000986268A168405DFA
:101270009047206A401C206228466D1E0028F3DC3F
:101280002046C046C0462078000602D5022005B0A0
:10129000F0BD0120FBE7000001694A1C02610878EB
:1012A000704700B58FB00291002105910549019367
:1012B00079440391114604906846FFF725FF0FB06B
:1012C00000BD0000E5FFFFFF0A681070521C0A60B5
:1012D000704701468008081A02091018020A1018FF
:1012E000020C1018C008820012185200891A01E07E
:1012F000401C0A390A29FBD27047754600F022F8D3
:10130000AE46050069465346C008C000854618B081
:1013100020B5FEF73BFF60BC00274908B646002613
:10132000C0C5C0C5C0C5C0C5C0C5C0C5C0C5C0C595
:10133000403D49008D4670470446C046C0462046A1
:10134000FEF713FF004870471800002001491820DD
:10135000ABBEFEE726000200704730B47446641E40
:101360002578641CAB4204D3635D5B00E31830BC9A
:1013700018471D46F8E700009813000800000020F9
:101380001800000004010008B01300081800002035
:1013900060060000200100080000000000000000BE
:1013A000000000000000000000000000000000003D
:04000005080000C12E
:00000001FF
